{
  "contractName": "Lottery",
  "abi": [
    {
      "inputs": [],
      "stateMutability": "nonpayable",
      "type": "constructor"
    },
    {
      "inputs": [],
      "name": "manager",
      "outputs": [
        {
          "internalType": "address payable",
          "name": "",
          "type": "address"
        }
      ],
      "stateMutability": "view",
      "type": "function",
      "constant": true
    },
    {
      "inputs": [
        {
          "internalType": "address",
          "name": "",
          "type": "address"
        }
      ],
      "name": "playersMap",
      "outputs": [
        {
          "internalType": "bool",
          "name": "",
          "type": "bool"
        }
      ],
      "stateMutability": "view",
      "type": "function",
      "constant": true
    },
    {
      "inputs": [
        {
          "internalType": "uint256",
          "name": "",
          "type": "uint256"
        }
      ],
      "name": "playersSlice",
      "outputs": [
        {
          "internalType": "address payable",
          "name": "",
          "type": "address"
        }
      ],
      "stateMutability": "view",
      "type": "function",
      "constant": true
    },
    {
      "inputs": [],
      "name": "round",
      "outputs": [
        {
          "internalType": "uint256",
          "name": "",
          "type": "uint256"
        }
      ],
      "stateMutability": "view",
      "type": "function",
      "constant": true
    },
    {
      "inputs": [],
      "name": "winner",
      "outputs": [
        {
          "internalType": "address payable",
          "name": "",
          "type": "address"
        }
      ],
      "stateMutability": "view",
      "type": "function",
      "constant": true
    },
    {
      "inputs": [],
      "name": "play",
      "outputs": [],
      "stateMutability": "payable",
      "type": "function",
      "payable": true
    },
    {
      "inputs": [],
      "name": "getBalance",
      "outputs": [
        {
          "internalType": "uint256",
          "name": "",
          "type": "uint256"
        }
      ],
      "stateMutability": "view",
      "type": "function",
      "constant": true
    },
    {
      "inputs": [],
      "name": "hasTicket",
      "outputs": [
        {
          "internalType": "bool",
          "name": "",
          "type": "bool"
        }
      ],
      "stateMutability": "view",
      "type": "function",
      "constant": true
    },
    {
      "inputs": [],
      "name": "getWinner",
      "outputs": [
        {
          "internalType": "address payable",
          "name": "",
          "type": "address"
        }
      ],
      "stateMutability": "view",
      "type": "function",
      "constant": true
    },
    {
      "inputs": [],
      "name": "getPlayersCnt",
      "outputs": [
        {
          "internalType": "uint256",
          "name": "",
          "type": "uint256"
        }
      ],
      "stateMutability": "view",
      "type": "function",
      "constant": true
    },
    {
      "inputs": [],
      "name": "drawPrize",
      "outputs": [],
      "stateMutability": "nonpayable",
      "type": "function"
    },
    {
      "inputs": [],
      "name": "withdrawPrize",
      "outputs": [],
      "stateMutability": "nonpayable",
      "type": "function"
    }
  ],
  "bytecode": "0x6080604052600060035534801561001557600080fd5b50336000806101000a81548173ffffffffffffffffffffffffffffffffffffffff021916908373ffffffffffffffffffffffffffffffffffffffff160217905550610adc806100656000396000f3fe6080604052600436106100a75760003560e01c8063675502631161006457806367550263146102025780638e7ea5b21461023157806393e84cd914610288578063979215de14610292578063dfbf53ae146102fb578063f0c05a7314610352576100a7565b806312065fe0146100ac578063146ca531146100d75780633be1439d14610102578063481c6a751461017d57806348d37a58146101d4578063501335f7146101eb575b600080fd5b3480156100b857600080fd5b506100c161037d565b6040518082815260200191505060405180910390f35b3480156100e357600080fd5b506100ec610385565b6040518082815260200191505060405180910390f35b34801561010e57600080fd5b5061013b6004803603602081101561012557600080fd5b810190808035906020019092919050505061038b565b604051808273ffffffffffffffffffffffffffffffffffffffff1673ffffffffffffffffffffffffffffffffffffffff16815260200191505060405180910390f35b34801561018957600080fd5b506101926103c7565b604051808273ffffffffffffffffffffffffffffffffffffffff1673ffffffffffffffffffffffffffffffffffffffff16815260200191505060405180910390f35b3480156101e057600080fd5b506101e96103ec565b005b3480156101f757600080fd5b50610200610548565b005b34801561020e57600080fd5b506102176107f6565b604051808215151515815260200191505060405180910390f35b34801561023d57600080fd5b5061024661084a565b604051808273ffffffffffffffffffffffffffffffffffffffff1673ffffffffffffffffffffffffffffffffffffffff16815260200191505060405180910390f35b610290610874565b005b34801561029e57600080fd5b506102e1600480360360208110156102b557600080fd5b81019080803573ffffffffffffffffffffffffffffffffffffffff169060200190929190505050610995565b604051808215151515815260200191505060405180910390f35b34801561030757600080fd5b506103106109b5565b604051808273ffffffffffffffffffffffffffffffffffffffff1673ffffffffffffffffffffffffffffffffffffffff16815260200191505060405180910390f35b34801561035e57600080fd5b506103676109db565b6040518082815260200191505060405180910390f35b600047905090565b60035481565b6001818154811061039857fe5b906000526020600020016000915054906101000a900473ffffffffffffffffffffffffffffffffffffffff1681565b6000809054906101000a900473ffffffffffffffffffffffffffffffffffffffff1681565b3373ffffffffffffffffffffffffffffffffffffffff166000809054906101000a900473ffffffffffffffffffffffffffffffffffffffff1673ffffffffffffffffffffffffffffffffffffffff161461044557600080fd5b60008090505b6001805490508110156105375760006001828154811061046757fe5b9060005260206000200160009054906101000a900473ffffffffffffffffffffffffffffffffffffffff169050600260008273ffffffffffffffffffffffffffffffffffffffff1673ffffffffffffffffffffffffffffffffffffffff16815260200190815260200160002060006101000a81549060ff02191690558073ffffffffffffffffffffffffffffffffffffffff166108fc60019081150290604051600060405180830381858888f1935050505015801561052a573d6000803e3d6000fd5b505080600101905061044b565b50600160006105469190610a60565b565b3373ffffffffffffffffffffffffffffffffffffffff166000809054906101000a900473ffffffffffffffffffffffffffffffffffffffff1673ffffffffffffffffffffffffffffffffffffffff16146105a157600080fd5b60006001805490509050600081116105b857600080fd5b6000816105c4836109e8565b816105cb57fe5b069050600181815481106105db57fe5b9060005260206000200160009054906101000a900473ffffffffffffffffffffffffffffffffffffffff16600460006101000a81548173ffffffffffffffffffffffffffffffffffffffff021916908373ffffffffffffffffffffffffffffffffffffffff16021790555060008061065961065461037d565b610a37565b80925081935050506000809054906101000a900473ffffffffffffffffffffffffffffffffffffffff1673ffffffffffffffffffffffffffffffffffffffff166108fc829081150290604051600060405180830381858888f193505050501580156106c8573d6000803e3d6000fd5b50600460009054906101000a900473ffffffffffffffffffffffffffffffffffffffff1673ffffffffffffffffffffffffffffffffffffffff166108fc839081150290604051600060405180830381858888f19350505050158015610731573d6000803e3d6000fd5b506003600081546001019190508190555060008090505b848110156107e157600260006001838154811061076157fe5b9060005260206000200160009054906101000a900473ffffffffffffffffffffffffffffffffffffffff1673ffffffffffffffffffffffffffffffffffffffff1673ffffffffffffffffffffffffffffffffffffffff16815260200190815260200160002060006101000a81549060ff0219169055806001019050610748565b50600160006107f09190610a60565b50505050565b6000600260003373ffffffffffffffffffffffffffffffffffffffff1673ffffffffffffffffffffffffffffffffffffffff16815260200190815260200160002060009054906101000a900460ff16905090565b6000600460009054906101000a900473ffffffffffffffffffffffffffffffffffffffff16905090565b6001341461088157600080fd5b600260003373ffffffffffffffffffffffffffffffffffffffff1673ffffffffffffffffffffffffffffffffffffffff16815260200190815260200160002060009054906101000a900460ff16156108d857600080fd5b6001600260003373ffffffffffffffffffffffffffffffffffffffff1673ffffffffffffffffffffffffffffffffffffffff16815260200190815260200160002060006101000a81548160ff0219169083151502179055506001339080600181540180825580915050600190039060005260206000200160009091909190916101000a81548173ffffffffffffffffffffffffffffffffffffffff021916908373ffffffffffffffffffffffffffffffffffffffff160217905550565b60026020528060005260406000206000915054906101000a900460ff1681565b600460009054906101000a900473ffffffffffffffffffffffffffffffffffffffff1681565b6000600180549050905090565b6000606042448460405160200180848152602001838152602001828152602001935050505060405160208183030381529060405290506000818051906020012090508060001c92505050919050565b6000806000600a6009850281610a4957fe5b049050600081850390508181935093505050915091565b5080546000825590600052602060002090810190610a7e9190610a81565b50565b610aa391905b80821115610a9f576000816000905550600101610a87565b5090565b9056fea2646970667358221220f55c3059a6910afdc5d4f6cd48144ad46715379ac50a828ff51338fe6036ad7f64736f6c63430006000033",
  "source": "pragma solidity ^0.6.0;\n\ncontract Lottery {\n\taddress payable public manager;\n\taddress payable[] public playersSlice;\n\tmapping(address => bool) public playersMap;\n\tuint256 public round = 0;\n\taddress payable public winner;\n\n\tconstructor() public {\n\t\tmanager = msg.sender;\n\t}\n\n\tmodifier onlyManager() {\n\t\trequire(manager == msg.sender);\n\t\t_;\n\t}\n\n\tfunction play() public payable {\n\t\trequire(msg.value == 1 wei);\n\t\trequire(!playersMap[msg.sender]);\n\t\tplayersMap[msg.sender] = true;\n\t\tplayersSlice.push(msg.sender);\n\t}\n\n\tfunction getBalance() public view returns(uint256) {\n\t\treturn address(this).balance;\n\t}\n\n\tfunction hasTicket() public view returns(bool) {\n\t\treturn playersMap[msg.sender];\n\t}\n\n\tfunction getWinner() public view returns(address payable) {\n\t\treturn winner;\n\t}\n\n\tfunction getPlayersCnt() public view returns(uint256) {\n\t\treturn playersSlice.length;\n\t}\n\n\tfunction randomUInt256(uint256 seed) private view returns(uint256) {\n\t\tbytes memory v1 = abi.encodePacked(block.timestamp, block.difficulty, seed);\n\t\tbytes32 v2 = keccak256(v1);\n\t\treturn uint256(v2);\n\t}\n\n\tfunction calBonusAndIncome(uint256 balance) private pure returns(uint256, uint256) {\n\t\tuint256 bonus = balance * 9 / 10;\n\t\tuint256 income = balance - bonus;\n\t\treturn (bonus, income);\n\t}\n\n\tfunction drawPrize() onlyManager public {\n\t\tuint256 len = playersSlice.length;\n\t\trequire(len > 0);\n\t\tuint256 idx = randomUInt256(len) % len;\n\t\twinner = playersSlice[idx];\n\t\tuint256 bonus;\n\t\tuint256 income;\n\t\t(bonus, income) = calBonusAndIncome(getBalance());\n\t\tmanager.transfer(income);\n\t\twinner.transfer(bonus);\n\t\t++round;\n\t\tfor (uint256 i = 0; i < len; ++i) {\n\t\t\tdelete(playersMap[playersSlice[i]]);\n\t\t}\n\t\tdelete(playersSlice);\n\t}\n\n\tfunction withdrawPrize() onlyManager public {\n\t\tfor (uint256 i = 0; i < playersSlice.length; ++i) {\n\t\t\taddress payable player = playersSlice[i];\n\t\t\tdelete(playersMap[player]);\n\t\t\tplayer.transfer(1 wei);\n\t\t}\n\t\tdelete(playersSlice);\n\t}\n}",
  "sourcePath": "/home/aymen/Centurion-Investing-Coin/contracts/lottery.sol",
  "compiler": {
    "name": "solc",
    "version": "0.6.0+commit.26b70077.Emscripten.clang"
  },
  "schemaVersion": "3.4.3",
  "updatedAt": "2021-08-18T14:57:01.110Z",
  "networkType": "ethereum",
  "devdoc": {
    "methods": {}
  },
  "userdoc": {
    "methods": {}
  }
}